{
  "contractName": "Exchange",
  "abi": [
    {
      "inputs": [
        {
          "internalType": "address",
          "name": "_feeAccount",
          "type": "address"
        },
        {
          "internalType": "uint256",
          "name": "_feePerent",
          "type": "uint256"
        }
      ],
      "stateMutability": "nonpayable",
      "type": "constructor"
    },
    {
      "anonymous": false,
      "inputs": [
        {
          "indexed": false,
          "internalType": "uint256",
          "name": "id",
          "type": "uint256"
        },
        {
          "indexed": false,
          "internalType": "address",
          "name": "user",
          "type": "address"
        },
        {
          "indexed": false,
          "internalType": "address",
          "name": "tokenGet",
          "type": "address"
        },
        {
          "indexed": false,
          "internalType": "uint256",
          "name": "amountGet",
          "type": "uint256"
        },
        {
          "indexed": false,
          "internalType": "address",
          "name": "tokenGive",
          "type": "address"
        },
        {
          "indexed": false,
          "internalType": "uint256",
          "name": "amountGive",
          "type": "uint256"
        },
        {
          "indexed": false,
          "internalType": "uint256",
          "name": "orderStatus",
          "type": "uint256"
        },
        {
          "indexed": false,
          "internalType": "uint256",
          "name": "timeStemp",
          "type": "uint256"
        }
      ],
      "name": "Cancel",
      "type": "event"
    },
    {
      "anonymous": false,
      "inputs": [
        {
          "indexed": false,
          "internalType": "address",
          "name": "token",
          "type": "address"
        },
        {
          "indexed": false,
          "internalType": "address",
          "name": "user",
          "type": "address"
        },
        {
          "indexed": false,
          "internalType": "uint256",
          "name": "amount",
          "type": "uint256"
        },
        {
          "indexed": false,
          "internalType": "uint256",
          "name": "balance",
          "type": "uint256"
        }
      ],
      "name": "Deposit",
      "type": "event"
    },
    {
      "anonymous": false,
      "inputs": [
        {
          "indexed": false,
          "internalType": "uint256",
          "name": "id",
          "type": "uint256"
        },
        {
          "indexed": false,
          "internalType": "address",
          "name": "user",
          "type": "address"
        },
        {
          "indexed": false,
          "internalType": "address",
          "name": "tokenGet",
          "type": "address"
        },
        {
          "indexed": false,
          "internalType": "uint256",
          "name": "amountGet",
          "type": "uint256"
        },
        {
          "indexed": false,
          "internalType": "address",
          "name": "tokenGive",
          "type": "address"
        },
        {
          "indexed": false,
          "internalType": "uint256",
          "name": "amountGive",
          "type": "uint256"
        },
        {
          "indexed": false,
          "internalType": "uint256",
          "name": "orderStatus",
          "type": "uint256"
        },
        {
          "indexed": false,
          "internalType": "uint256",
          "name": "timeStemp",
          "type": "uint256"
        }
      ],
      "name": "Finish",
      "type": "event"
    },
    {
      "anonymous": false,
      "inputs": [
        {
          "indexed": false,
          "internalType": "uint256",
          "name": "id",
          "type": "uint256"
        },
        {
          "indexed": false,
          "internalType": "address",
          "name": "user",
          "type": "address"
        },
        {
          "indexed": false,
          "internalType": "address",
          "name": "tokenGet",
          "type": "address"
        },
        {
          "indexed": false,
          "internalType": "uint256",
          "name": "amountGet",
          "type": "uint256"
        },
        {
          "indexed": false,
          "internalType": "address",
          "name": "tokenGive",
          "type": "address"
        },
        {
          "indexed": false,
          "internalType": "uint256",
          "name": "amountGive",
          "type": "uint256"
        },
        {
          "indexed": false,
          "internalType": "uint256",
          "name": "orderStatus",
          "type": "uint256"
        },
        {
          "indexed": false,
          "internalType": "uint256",
          "name": "timeStemp",
          "type": "uint256"
        }
      ],
      "name": "Order",
      "type": "event"
    },
    {
      "anonymous": false,
      "inputs": [
        {
          "indexed": false,
          "internalType": "address",
          "name": "token",
          "type": "address"
        },
        {
          "indexed": false,
          "internalType": "address",
          "name": "user",
          "type": "address"
        },
        {
          "indexed": false,
          "internalType": "uint256",
          "name": "amount",
          "type": "uint256"
        },
        {
          "indexed": false,
          "internalType": "uint256",
          "name": "balance",
          "type": "uint256"
        }
      ],
      "name": "withDraw",
      "type": "event"
    },
    {
      "inputs": [],
      "name": "feeAccount",
      "outputs": [
        {
          "internalType": "address",
          "name": "",
          "type": "address"
        }
      ],
      "stateMutability": "view",
      "type": "function",
      "constant": true
    },
    {
      "inputs": [],
      "name": "feePerent",
      "outputs": [
        {
          "internalType": "uint256",
          "name": "",
          "type": "uint256"
        }
      ],
      "stateMutability": "view",
      "type": "function",
      "constant": true
    },
    {
      "inputs": [],
      "name": "orderCount",
      "outputs": [
        {
          "internalType": "uint256",
          "name": "",
          "type": "uint256"
        }
      ],
      "stateMutability": "view",
      "type": "function",
      "constant": true
    },
    {
      "inputs": [
        {
          "internalType": "uint256",
          "name": "",
          "type": "uint256"
        }
      ],
      "name": "orders",
      "outputs": [
        {
          "internalType": "uint256",
          "name": "id",
          "type": "uint256"
        },
        {
          "internalType": "address",
          "name": "user",
          "type": "address"
        },
        {
          "internalType": "address",
          "name": "tokenGet",
          "type": "address"
        },
        {
          "internalType": "uint256",
          "name": "amountGet",
          "type": "uint256"
        },
        {
          "internalType": "address",
          "name": "tokenGive",
          "type": "address"
        },
        {
          "internalType": "uint256",
          "name": "amountGive",
          "type": "uint256"
        },
        {
          "internalType": "uint256",
          "name": "orderStatus",
          "type": "uint256"
        },
        {
          "internalType": "uint256",
          "name": "timestamp",
          "type": "uint256"
        }
      ],
      "stateMutability": "view",
      "type": "function",
      "constant": true
    },
    {
      "inputs": [
        {
          "internalType": "address",
          "name": "",
          "type": "address"
        },
        {
          "internalType": "address",
          "name": "",
          "type": "address"
        }
      ],
      "name": "tokens",
      "outputs": [
        {
          "internalType": "uint256",
          "name": "",
          "type": "uint256"
        }
      ],
      "stateMutability": "view",
      "type": "function",
      "constant": true
    },
    {
      "inputs": [],
      "name": "depositEther",
      "outputs": [],
      "stateMutability": "payable",
      "type": "function",
      "payable": true
    },
    {
      "inputs": [
        {
          "internalType": "address",
          "name": "_token",
          "type": "address"
        },
        {
          "internalType": "uint256",
          "name": "_amount",
          "type": "uint256"
        }
      ],
      "name": "depositToken",
      "outputs": [],
      "stateMutability": "nonpayable",
      "type": "function"
    },
    {
      "inputs": [
        {
          "internalType": "uint256",
          "name": "_amount",
          "type": "uint256"
        }
      ],
      "name": "withDrawEther",
      "outputs": [],
      "stateMutability": "nonpayable",
      "type": "function"
    },
    {
      "inputs": [
        {
          "internalType": "address",
          "name": "_token",
          "type": "address"
        },
        {
          "internalType": "uint256",
          "name": "_amount",
          "type": "uint256"
        }
      ],
      "name": "withDrawToken",
      "outputs": [],
      "stateMutability": "nonpayable",
      "type": "function"
    },
    {
      "inputs": [
        {
          "internalType": "address",
          "name": "_token",
          "type": "address"
        },
        {
          "internalType": "address",
          "name": "user",
          "type": "address"
        }
      ],
      "name": "balanceOf",
      "outputs": [
        {
          "internalType": "uint256",
          "name": "",
          "type": "uint256"
        }
      ],
      "stateMutability": "view",
      "type": "function",
      "constant": true
    },
    {
      "inputs": [
        {
          "internalType": "address",
          "name": "_tokenGet",
          "type": "address"
        },
        {
          "internalType": "uint256",
          "name": "_amountGet",
          "type": "uint256"
        },
        {
          "internalType": "address",
          "name": "_tokenGive",
          "type": "address"
        },
        {
          "internalType": "uint256",
          "name": "_amountGive",
          "type": "uint256"
        }
      ],
      "name": "makerOrder",
      "outputs": [],
      "stateMutability": "nonpayable",
      "type": "function"
    },
    {
      "inputs": [
        {
          "internalType": "uint256",
          "name": "_id",
          "type": "uint256"
        }
      ],
      "name": "cancelOrder",
      "outputs": [],
      "stateMutability": "nonpayable",
      "type": "function"
    },
    {
      "inputs": [
        {
          "internalType": "uint256",
          "name": "_id",
          "type": "uint256"
        }
      ],
      "name": "finishOrder",
      "outputs": [],
      "stateMutability": "nonpayable",
      "type": "function"
    }
  ],
  "bytecode": "0x60806040523480156200001157600080fd5b5060405162002a1638038062002a1683398181016040528101906200003791906200012b565b816000806101000a81548173ffffffffffffffffffffffffffffffffffffffff021916908373ffffffffffffffffffffffffffffffffffffffff16021790555080600181905550505062000172565b600080fd5b600073ffffffffffffffffffffffffffffffffffffffff82169050919050565b6000620000b8826200008b565b9050919050565b620000ca81620000ab565b8114620000d657600080fd5b50565b600081519050620000ea81620000bf565b92915050565b6000819050919050565b6200010581620000f0565b81146200011157600080fd5b50565b6000815190506200012581620000fa565b92915050565b6000806040838503121562000145576200014462000086565b5b60006200015585828601620000d9565b9250506020620001688582860162000114565b9150509250929050565b61289480620001826000396000f3fe6080604052600436106100df576000357c01000000000000000000000000000000000000000000000000000000009004806385bc70711161009c578063caad5b1811610076578063caad5b1814610269578063f012be3814610292578063f7888aec146102bb578063f9a4e774146102f8576100df565b806385bc7071146101f257806398ea5fca1461021b578063a85c38ef14610225576100df565b80632453ffa8146100e4578063338b5dea1461010f578063508493bc14610138578063514fcac71461017557806365e17c9d1461019e5780636cab056f146101c9575b600080fd5b3480156100f057600080fd5b506100f9610323565b6040516101069190611f99565b60405180910390f35b34801561011b57600080fd5b5061013660048036038101906101319190612043565b610329565b005b34801561014457600080fd5b5061015f600480360381019061015a9190612083565b6105d3565b60405161016c9190611f99565b60405180910390f35b34801561018157600080fd5b5061019c600480360381019061019791906120c3565b6105f8565b005b3480156101aa57600080fd5b506101b361096b565b6040516101c091906120ff565b60405180910390f35b3480156101d557600080fd5b506101f060048036038101906101eb919061211a565b61098f565b005b3480156101fe57600080fd5b5061021960048036038101906102149190612043565b610b97565b005b610223610ec8565b005b34801561023157600080fd5b5061024c600480360381019061024791906120c3565b611093565b604051610260989796959493929190612181565b60405180910390f35b34801561027557600080fd5b50610290600480360381019061028b91906120c3565b61113b565b005b34801561029e57600080fd5b506102b960048036038101906102b491906120c3565b6113d7565b005b3480156102c757600080fd5b506102e260048036038101906102dd9190612083565b611d6a565b6040516102ef9190611f99565b60405180910390f35b34801561030457600080fd5b5061030d611df1565b60405161031a9190611f99565b60405180910390f35b60045481565b600073ffffffffffffffffffffffffffffffffffffffff168273ffffffffffffffffffffffffffffffffffffffff160361036257600080fd5b8173ffffffffffffffffffffffffffffffffffffffff166323b872dd3330846040518463ffffffff167c01000000000000000000000000000000000000000000000000000000000281526004016103bb939291906121ff565b6020604051808303816000875af11580156103da573d6000803e3d6000fd5b505050506040513d601f19601f820116820180604052508101906103fe919061226e565b61040757600080fd5b61049681600260008573ffffffffffffffffffffffffffffffffffffffff1673ffffffffffffffffffffffffffffffffffffffff16815260200190815260200160002060003373ffffffffffffffffffffffffffffffffffffffff1673ffffffffffffffffffffffffffffffffffffffff16815260200190815260200160002054611df790919063ffffffff16565b600260008473ffffffffffffffffffffffffffffffffffffffff1673ffffffffffffffffffffffffffffffffffffffff16815260200190815260200160002060003373ffffffffffffffffffffffffffffffffffffffff1673ffffffffffffffffffffffffffffffffffffffff168152602001908152602001600020819055507fdcbc1c05240f31ff3ad067ef1ee35ce4997762752e3a095284754544f4c709d7823383600260008773ffffffffffffffffffffffffffffffffffffffff1673ffffffffffffffffffffffffffffffffffffffff16815260200190815260200160002060003373ffffffffffffffffffffffffffffffffffffffff1673ffffffffffffffffffffffffffffffffffffffff168152602001908152602001600020546040516105c7949392919061229b565b60405180910390a15050565b6002602052816000526040600020602052806000526040600020600091509150505481565b60006003600083815260200190815260200160002060405180610100016040529081600082015481526020016001820160009054906101000a900473ffffffffffffffffffffffffffffffffffffffff1673ffffffffffffffffffffffffffffffffffffffff1673ffffffffffffffffffffffffffffffffffffffff1681526020016002820160009054906101000a900473ffffffffffffffffffffffffffffffffffffffff1673ffffffffffffffffffffffffffffffffffffffff1673ffffffffffffffffffffffffffffffffffffffff168152602001600382015481526020016004820160009054906101000a900473ffffffffffffffffffffffffffffffffffffffff1673ffffffffffffffffffffffffffffffffffffffff1673ffffffffffffffffffffffffffffffffffffffff168152602001600582015481526020016006820154815260200160078201548152505090508181600001511461075f57600080fd5b604051806101000160405280826000015181526020013373ffffffffffffffffffffffffffffffffffffffff168152602001826040015173ffffffffffffffffffffffffffffffffffffffff16815260200182606001518152602001826080015173ffffffffffffffffffffffffffffffffffffffff1681526020018260a0015181526020016002815260200142815250600360008481526020019081526020016000206000820151816000015560208201518160010160006101000a81548173ffffffffffffffffffffffffffffffffffffffff021916908373ffffffffffffffffffffffffffffffffffffffff16021790555060408201518160020160006101000a81548173ffffffffffffffffffffffffffffffffffffffff021916908373ffffffffffffffffffffffffffffffffffffffff1602179055506060820151816003015560808201518160040160006101000a81548173ffffffffffffffffffffffffffffffffffffffff021916908373ffffffffffffffffffffffffffffffffffffffff16021790555060a0820151816005015560c0820151816006015560e082015181600701559050507f04df834649d66e3e81790581afac07759570e116d86e3326672055c0247bf7da8160000151338360400151846060015185608001518660a0015160024260405161095f989796959493929190612325565b60405180910390a15050565b60008054906101000a900473ffffffffffffffffffffffffffffffffffffffff1681565b6109a56001600454611df790919063ffffffff16565b60048190555060405180610100016040528060045481526020013373ffffffffffffffffffffffffffffffffffffffff1681526020018573ffffffffffffffffffffffffffffffffffffffff1681526020018481526020018373ffffffffffffffffffffffffffffffffffffffff16815260200182815260200160018152602001428152506003600060045481526020019081526020016000206000820151816000015560208201518160010160006101000a81548173ffffffffffffffffffffffffffffffffffffffff021916908373ffffffffffffffffffffffffffffffffffffffff16021790555060408201518160020160006101000a81548173ffffffffffffffffffffffffffffffffffffffff021916908373ffffffffffffffffffffffffffffffffffffffff1602179055506060820151816003015560808201518160040160006101000a81548173ffffffffffffffffffffffffffffffffffffffff021916908373ffffffffffffffffffffffffffffffffffffffff16021790555060a0820151816005015560c0820151816006015560e082015181600701559050507f2c7e132f62844bef180e86227c405efc7e1d3bb19b1a53968598638d0deda9b46004543386868686600142604051610b899897969594939291906123de565b60405180910390a150505050565b600073ffffffffffffffffffffffffffffffffffffffff168273ffffffffffffffffffffffffffffffffffffffff1603610bd057600080fd5b80600260008473ffffffffffffffffffffffffffffffffffffffff1673ffffffffffffffffffffffffffffffffffffffff16815260200190815260200160002060003373ffffffffffffffffffffffffffffffffffffffff1673ffffffffffffffffffffffffffffffffffffffff168152602001908152602001600020541015610c5957600080fd5b610ce881600260008573ffffffffffffffffffffffffffffffffffffffff1673ffffffffffffffffffffffffffffffffffffffff16815260200190815260200160002060003373ffffffffffffffffffffffffffffffffffffffff1673ffffffffffffffffffffffffffffffffffffffff16815260200190815260200160002054611e5590919063ffffffff16565b600260008473ffffffffffffffffffffffffffffffffffffffff1673ffffffffffffffffffffffffffffffffffffffff16815260200190815260200160002060003373ffffffffffffffffffffffffffffffffffffffff1673ffffffffffffffffffffffffffffffffffffffff168152602001908152602001600020819055508173ffffffffffffffffffffffffffffffffffffffff1663a9059cbb33836040518363ffffffff167c0100000000000000000000000000000000000000000000000000000000028152600401610dbf92919061245c565b6020604051808303816000875af1158015610dde573d6000803e3d6000fd5b505050506040513d601f19601f82011682018060405250810190610e02919061226e565b610e0b57600080fd5b7f55ae57eacebd448a42a0b762d7566c339ed51add03b4cdf561e0274a63d35c7f823383600260008773ffffffffffffffffffffffffffffffffffffffff1673ffffffffffffffffffffffffffffffffffffffff16815260200190815260200160002060003373ffffffffffffffffffffffffffffffffffffffff1673ffffffffffffffffffffffffffffffffffffffff16815260200190815260200160002054604051610ebc949392919061229b565b60405180910390a15050565b610f5734600260008073ffffffffffffffffffffffffffffffffffffffff1673ffffffffffffffffffffffffffffffffffffffff16815260200190815260200160002060003373ffffffffffffffffffffffffffffffffffffffff1673ffffffffffffffffffffffffffffffffffffffff16815260200190815260200160002054611df790919063ffffffff16565b600260008073ffffffffffffffffffffffffffffffffffffffff1673ffffffffffffffffffffffffffffffffffffffff16815260200190815260200160002060003373ffffffffffffffffffffffffffffffffffffffff1673ffffffffffffffffffffffffffffffffffffffff168152602001908152602001600020819055507fdcbc1c05240f31ff3ad067ef1ee35ce4997762752e3a095284754544f4c709d760003334600260008073ffffffffffffffffffffffffffffffffffffffff1673ffffffffffffffffffffffffffffffffffffffff16815260200190815260200160002060003373ffffffffffffffffffffffffffffffffffffffff1673ffffffffffffffffffffffffffffffffffffffff16815260200190815260200160002054604051611089949392919061229b565b60405180910390a1565b60036020528060005260406000206000915090508060000154908060010160009054906101000a900473ffffffffffffffffffffffffffffffffffffffff16908060020160009054906101000a900473ffffffffffffffffffffffffffffffffffffffff16908060030154908060040160009054906101000a900473ffffffffffffffffffffffffffffffffffffffff16908060050154908060060154908060070154905088565b80600260008073ffffffffffffffffffffffffffffffffffffffff1673ffffffffffffffffffffffffffffffffffffffff16815260200190815260200160002060003373ffffffffffffffffffffffffffffffffffffffff1673ffffffffffffffffffffffffffffffffffffffff1681526020019081526020016000205410156111c457600080fd5b61125381600260008073ffffffffffffffffffffffffffffffffffffffff1673ffffffffffffffffffffffffffffffffffffffff16815260200190815260200160002060003373ffffffffffffffffffffffffffffffffffffffff1673ffffffffffffffffffffffffffffffffffffffff16815260200190815260200160002054611e5590919063ffffffff16565b600260008073ffffffffffffffffffffffffffffffffffffffff1673ffffffffffffffffffffffffffffffffffffffff16815260200190815260200160002060003373ffffffffffffffffffffffffffffffffffffffff1673ffffffffffffffffffffffffffffffffffffffff168152602001908152602001600020819055503373ffffffffffffffffffffffffffffffffffffffff166108fc829081150290604051600060405180830381858888f19350505050158015611319573d6000803e3d6000fd5b507f55ae57eacebd448a42a0b762d7566c339ed51add03b4cdf561e0274a63d35c7f60003383600260008073ffffffffffffffffffffffffffffffffffffffff1673ffffffffffffffffffffffffffffffffffffffff16815260200190815260200160002060003373ffffffffffffffffffffffffffffffffffffffff1673ffffffffffffffffffffffffffffffffffffffff168152602001908152602001600020546040516113cc949392919061229b565b60405180910390a150565b60006003600083815260200190815260200160002060405180610100016040529081600082015481526020016001820160009054906101000a900473ffffffffffffffffffffffffffffffffffffffff1673ffffffffffffffffffffffffffffffffffffffff1673ffffffffffffffffffffffffffffffffffffffff1681526020016002820160009054906101000a900473ffffffffffffffffffffffffffffffffffffffff1673ffffffffffffffffffffffffffffffffffffffff1673ffffffffffffffffffffffffffffffffffffffff168152602001600382015481526020016004820160009054906101000a900473ffffffffffffffffffffffffffffffffffffffff1673ffffffffffffffffffffffffffffffffffffffff1673ffffffffffffffffffffffffffffffffffffffff168152602001600582015481526020016006820154815260200160078201548152505090508181600001511461153e57600080fd5b60405180610100016040528082600001518152602001826020015173ffffffffffffffffffffffffffffffffffffffff168152602001826040015173ffffffffffffffffffffffffffffffffffffffff16815260200182606001518152602001826080015173ffffffffffffffffffffffffffffffffffffffff1681526020018260a0015181526020016003815260200142815250600360008481526020019081526020016000206000820151816000015560208201518160010160006101000a81548173ffffffffffffffffffffffffffffffffffffffff021916908373ffffffffffffffffffffffffffffffffffffffff16021790555060408201518160020160006101000a81548173ffffffffffffffffffffffffffffffffffffffff021916908373ffffffffffffffffffffffffffffffffffffffff1602179055506060820151816003015560808201518160040160006101000a81548173ffffffffffffffffffffffffffffffffffffffff021916908373ffffffffffffffffffffffffffffffffffffffff16021790555060a0820151816005015560c0820151816006015560e08201518160070155905050600061171e60646117106001548560600151611eae90919063ffffffff16565b611f2890919063ffffffff16565b90506117bb826060015160026000856040015173ffffffffffffffffffffffffffffffffffffffff1673ffffffffffffffffffffffffffffffffffffffff1681526020019081526020016000206000856020015173ffffffffffffffffffffffffffffffffffffffff1673ffffffffffffffffffffffffffffffffffffffff16815260200190815260200160002054611df790919063ffffffff16565b60026000846040015173ffffffffffffffffffffffffffffffffffffffff1673ffffffffffffffffffffffffffffffffffffffff1681526020019081526020016000206000846020015173ffffffffffffffffffffffffffffffffffffffff1673ffffffffffffffffffffffffffffffffffffffff168152602001908152602001600020819055506118de8260a0015160026000856080015173ffffffffffffffffffffffffffffffffffffffff1673ffffffffffffffffffffffffffffffffffffffff1681526020019081526020016000206000856020015173ffffffffffffffffffffffffffffffffffffffff1673ffffffffffffffffffffffffffffffffffffffff16815260200190815260200160002054611e5590919063ffffffff16565b60026000846080015173ffffffffffffffffffffffffffffffffffffffff1673ffffffffffffffffffffffffffffffffffffffff1681526020019081526020016000206000846020015173ffffffffffffffffffffffffffffffffffffffff1673ffffffffffffffffffffffffffffffffffffffff16815260200190815260200160002081905550611a0f611980828460600151611df790919063ffffffff16565b60026000856040015173ffffffffffffffffffffffffffffffffffffffff1673ffffffffffffffffffffffffffffffffffffffff16815260200190815260200160002060003373ffffffffffffffffffffffffffffffffffffffff1673ffffffffffffffffffffffffffffffffffffffff16815260200190815260200160002054611e5590919063ffffffff16565b60026000846040015173ffffffffffffffffffffffffffffffffffffffff1673ffffffffffffffffffffffffffffffffffffffff16815260200190815260200160002060003373ffffffffffffffffffffffffffffffffffffffff1673ffffffffffffffffffffffffffffffffffffffff16815260200190815260200160002081905550611b2a8260a0015160026000856080015173ffffffffffffffffffffffffffffffffffffffff1673ffffffffffffffffffffffffffffffffffffffff16815260200190815260200160002060003373ffffffffffffffffffffffffffffffffffffffff1673ffffffffffffffffffffffffffffffffffffffff16815260200190815260200160002054611df790919063ffffffff16565b60026000846080015173ffffffffffffffffffffffffffffffffffffffff1673ffffffffffffffffffffffffffffffffffffffff16815260200190815260200160002060003373ffffffffffffffffffffffffffffffffffffffff1673ffffffffffffffffffffffffffffffffffffffff16815260200190815260200160002081905550611c628160026000856040015173ffffffffffffffffffffffffffffffffffffffff1673ffffffffffffffffffffffffffffffffffffffff16815260200190815260200160002060008060009054906101000a900473ffffffffffffffffffffffffffffffffffffffff1673ffffffffffffffffffffffffffffffffffffffff1673ffffffffffffffffffffffffffffffffffffffff16815260200190815260200160002054611df790919063ffffffff16565b60026000846040015173ffffffffffffffffffffffffffffffffffffffff1673ffffffffffffffffffffffffffffffffffffffff16815260200190815260200160002060008060009054906101000a900473ffffffffffffffffffffffffffffffffffffffff1673ffffffffffffffffffffffffffffffffffffffff1673ffffffffffffffffffffffffffffffffffffffff168152602001908152602001600020819055507f4c3f46abce8412828753f13578105368e1cab5601097972cbd5a77daeab9d6cf826000015183602001518460400151856060015186608001518760a00151600342604051611d5d9897969594939291906124c0565b60405180910390a1505050565b6000600260008473ffffffffffffffffffffffffffffffffffffffff1673ffffffffffffffffffffffffffffffffffffffff16815260200190815260200160002060008373ffffffffffffffffffffffffffffffffffffffff1673ffffffffffffffffffffffffffffffffffffffff16815260200190815260200160002054905092915050565b60015481565b6000808284611e06919061256d565b905083811015611e4b576040517f08c379a0000000000000000000000000000000000000000000000000000000008152600401611e42906125fe565b60405180910390fd5b8091505092915050565b600082821115611e9a576040517f08c379a0000000000000000000000000000000000000000000000000000000008152600401611e919061266a565b60405180910390fd5b8183611ea6919061268a565b905092915050565b6000808303611ec05760009050611f22565b60008284611ece91906126be565b9050828482611edd919061272f565b14611f1d576040517f08c379a0000000000000000000000000000000000000000000000000000000008152600401611f14906127d2565b60405180910390fd5b809150505b92915050565b6000808211611f6c576040517f08c379a0000000000000000000000000000000000000000000000000000000008152600401611f639061283e565b60405180910390fd5b8183611f78919061272f565b905092915050565b6000819050919050565b611f9381611f80565b82525050565b6000602082019050611fae6000830184611f8a565b92915050565b600080fd5b600073ffffffffffffffffffffffffffffffffffffffff82169050919050565b6000611fe482611fb9565b9050919050565b611ff481611fd9565b8114611fff57600080fd5b50565b60008135905061201181611feb565b92915050565b61202081611f80565b811461202b57600080fd5b50565b60008135905061203d81612017565b92915050565b6000806040838503121561205a57612059611fb4565b5b600061206885828601612002565b92505060206120798582860161202e565b9150509250929050565b6000806040838503121561209a57612099611fb4565b5b60006120a885828601612002565b92505060206120b985828601612002565b9150509250929050565b6000602082840312156120d9576120d8611fb4565b5b60006120e78482850161202e565b91505092915050565b6120f981611fd9565b82525050565b600060208201905061211460008301846120f0565b92915050565b6000806000806080858703121561213457612133611fb4565b5b600061214287828801612002565b94505060206121538782880161202e565b935050604061216487828801612002565b92505060606121758782880161202e565b91505092959194509250565b600061010082019050612197600083018b611f8a565b6121a4602083018a6120f0565b6121b160408301896120f0565b6121be6060830188611f8a565b6121cb60808301876120f0565b6121d860a0830186611f8a565b6121e560c0830185611f8a565b6121f260e0830184611f8a565b9998505050505050505050565b600060608201905061221460008301866120f0565b61222160208301856120f0565b61222e6040830184611f8a565b949350505050565b60008115159050919050565b61224b81612236565b811461225657600080fd5b50565b60008151905061226881612242565b92915050565b60006020828403121561228457612283611fb4565b5b600061229284828501612259565b91505092915050565b60006080820190506122b060008301876120f0565b6122bd60208301866120f0565b6122ca6040830185611f8a565b6122d76060830184611f8a565b95945050505050565b6000819050919050565b6000819050919050565b600061230f61230a612305846122e0565b6122ea565b611f80565b9050919050565b61231f816122f4565b82525050565b60006101008201905061233b600083018b611f8a565b612348602083018a6120f0565b61235560408301896120f0565b6123626060830188611f8a565b61236f60808301876120f0565b61237c60a0830186611f8a565b61238960c0830185612316565b61239660e0830184611f8a565b9998505050505050505050565b6000819050919050565b60006123c86123c36123be846123a3565b6122ea565b611f80565b9050919050565b6123d8816123ad565b82525050565b6000610100820190506123f4600083018b611f8a565b612401602083018a6120f0565b61240e60408301896120f0565b61241b6060830188611f8a565b61242860808301876120f0565b61243560a0830186611f8a565b61244260c08301856123cf565b61244f60e0830184611f8a565b9998505050505050505050565b600060408201905061247160008301856120f0565b61247e6020830184611f8a565b9392505050565b6000819050919050565b60006124aa6124a56124a084612485565b6122ea565b611f80565b9050919050565b6124ba8161248f565b82525050565b6000610100820190506124d6600083018b611f8a565b6124e3602083018a6120f0565b6124f060408301896120f0565b6124fd6060830188611f8a565b61250a60808301876120f0565b61251760a0830186611f8a565b61252460c08301856124b1565b61253160e0830184611f8a565b9998505050505050505050565b7f4e487b7100000000000000000000000000000000000000000000000000000000600052601160045260246000fd5b600061257882611f80565b915061258383611f80565b925082820190508082111561259b5761259a61253e565b5b92915050565b600082825260208201905092915050565b7f536166654d6174683a206164646974696f6e206f766572666c6f770000000000600082015250565b60006125e8601b836125a1565b91506125f3826125b2565b602082019050919050565b60006020820190508181036000830152612617816125db565b9050919050565b7f536166654d6174683a207375627472616374696f6e206f766572666c6f770000600082015250565b6000612654601e836125a1565b915061265f8261261e565b602082019050919050565b6000602082019050818103600083015261268381612647565b9050919050565b600061269582611f80565b91506126a083611f80565b92508282039050818111156126b8576126b761253e565b5b92915050565b60006126c982611f80565b91506126d483611f80565b92508282026126e281611f80565b915082820484148315176126f9576126f861253e565b5b5092915050565b7f4e487b7100000000000000000000000000000000000000000000000000000000600052601260045260246000fd5b600061273a82611f80565b915061274583611f80565b92508261275557612754612700565b5b828204905092915050565b7f536166654d6174683a206d756c7469706c69636174696f6e206f766572666c6f60008201527f7700000000000000000000000000000000000000000000000000000000000000602082015250565b60006127bc6021836125a1565b91506127c782612760565b604082019050919050565b600060208201905081810360008301526127eb816127af565b9050919050565b7f536166654d6174683a206469766973696f6e206279207a65726f000000000000600082015250565b6000612828601a836125a1565b9150612833826127f2565b602082019050919050565b600060208201905081810360008301526128578161281b565b905091905056fea26469706673582212203042dafdf8de895637ee4102eeac61980ce75f6f0c4ebe8062bfd4fff6dd843f64736f6c63430008150033",
  "immutableReferences": {},
  "source": "// SPDX-License-Identifier: MIT\npragma solidity ^0.8.21;\nimport \"openzeppelin-solidity/contracts/math/SafeMath.sol\";\nimport \"./YydyToken.sol\";\n\ncontract Exchange {\n    using SafeMath for uint256;\n    address public feeAccount;\n    uint256 public feePerent;\n    address constant ETHER = address(0);\n\n    mapping(address => mapping(address => uint256)) public tokens;\n\n    struct _Order {\n        uint256 id;\n        address user;\n        //\n        address tokenGet;\n        uint256 amountGet;\n        //\n        address tokenGive;\n        uint256 amountGive;\n        uint256 orderStatus; //1 2 3\n        uint256 timestamp;\n    }\n    mapping(uint256 => _Order) public orders;\n    uint256 public orderCount;\n\n    constructor(address _feeAccount, uint256 _feePerent) {\n        feeAccount = _feeAccount;\n        feePerent = _feePerent;\n    }\n\n    event Deposit(address token, address user, uint256 amount, uint256 balance);\n    event withDraw(\n        address token,\n        address user,\n        uint256 amount,\n        uint256 balance\n    );\n    event Order(\n        uint256 id,\n        address user,\n        address tokenGet,\n        uint256 amountGet,\n        address tokenGive,\n        uint256 amountGive,\n        uint256 orderStatus,\n        uint256 timeStemp\n    );\n    event Cancel(\n        uint256 id,\n        address user,\n        address tokenGet,\n        uint256 amountGet,\n        address tokenGive,\n        uint256 amountGive,\n        uint256 orderStatus,\n        uint256 timeStemp\n    );\n    event Finish(\n        uint256 id,\n        address user,\n        address tokenGet,\n        uint256 amountGet,\n        address tokenGive,\n        uint256 amountGive,\n        uint256 orderStatus,\n        uint256 timeStemp\n    );\n\n    function depositEther() public payable {\n        tokens[ETHER][msg.sender] = tokens[ETHER][msg.sender].add(msg.value);\n        emit Deposit(ETHER, msg.sender, msg.value, tokens[ETHER][msg.sender]);\n    }\n\n    function depositToken(address _token, uint256 _amount) public {\n        require(_token != ETHER);\n        require(\n            YydyToken(_token).transferFrom(msg.sender, address(this), _amount)\n        );\n        tokens[_token][msg.sender] = tokens[_token][msg.sender].add(_amount);\n        emit Deposit(_token, msg.sender, _amount, tokens[_token][msg.sender]);\n    }\n\n    function withDrawEther(uint256 _amount) public {\n        require(tokens[ETHER][msg.sender] >= _amount);\n        tokens[ETHER][msg.sender] = tokens[ETHER][msg.sender].sub(_amount);\n        payable(msg.sender).transfer(_amount);\n        emit withDraw(ETHER, msg.sender, _amount, tokens[ETHER][msg.sender]);\n    }\n\n    function withDrawToken(address _token, uint256 _amount) public {\n        require(_token != ETHER);\n        require(tokens[_token][msg.sender] >= _amount);\n        tokens[_token][msg.sender] = tokens[_token][msg.sender].sub(_amount);\n        require(YydyToken(_token).transfer(msg.sender, _amount));\n        emit withDraw(_token, msg.sender, _amount, tokens[_token][msg.sender]);\n    }\n\n    function balanceOf(\n        address _token,\n        address user\n    ) public view returns (uint256) {\n        return tokens[_token][user];\n    }\n\n    function makerOrder(\n        address _tokenGet,\n        uint256 _amountGet,\n        address _tokenGive,\n        uint256 _amountGive\n    ) public {\n        orderCount = orderCount.add(1);\n        orders[orderCount] = _Order(\n            orderCount,\n            msg.sender,\n            _tokenGet,\n            _amountGet,\n            _tokenGive,\n            _amountGive,\n            1,\n            block.timestamp\n        );\n        emit Order(\n            orderCount,\n            msg.sender,\n            _tokenGet,\n            _amountGet,\n            _tokenGive,\n            _amountGive,\n            1,\n            block.timestamp\n        );\n    }\n\n    function cancelOrder(uint256 _id) public {\n        _Order memory myOrder = orders[_id];\n        require(myOrder.id == _id);\n        orders[_id] = _Order(\n            myOrder.id,\n            msg.sender,\n            myOrder.tokenGet,\n            myOrder.amountGet,\n            myOrder.tokenGive,\n            myOrder.amountGive,\n            2,\n            block.timestamp\n        );\n        emit Cancel(\n            myOrder.id,\n            msg.sender,\n            myOrder.tokenGet,\n            myOrder.amountGet,\n            myOrder.tokenGive,\n            myOrder.amountGive,\n            2,\n            block.timestamp\n        );\n    }\n\n    function finishOrder(uint256 _id) public {\n        _Order memory myOrder = orders[_id];\n        require(myOrder.id == _id);\n        orders[_id] = _Order(\n            myOrder.id,\n            myOrder.user,\n            myOrder.tokenGet,\n            myOrder.amountGet,\n            myOrder.tokenGive,\n            myOrder.amountGive,\n            3,\n            block.timestamp\n        );\n        uint256 feeAmount = myOrder.amountGet.mul(feePerent).div(100);\n        //\n        // tokenGet amountGet\n        // tokenGive  amountGive\n        tokens[myOrder.tokenGet][myOrder.user] = tokens[myOrder.tokenGet][\n            myOrder.user\n        ].add(myOrder.amountGet);\n        tokens[myOrder.tokenGive][myOrder.user] = tokens[myOrder.tokenGive][\n            myOrder.user\n        ].sub(myOrder.amountGive);\n        // \n        // tokenGive amountGive\n        // tokenGet amountGet\n        tokens[myOrder.tokenGet][msg.sender] = tokens[myOrder.tokenGet][\n            msg.sender\n        ].sub(myOrder.amountGet.add(feeAmount));\n        tokens[myOrder.tokenGive][msg.sender] = tokens[myOrder.tokenGive][\n            msg.sender\n        ].add(myOrder.amountGive);\n\n        tokens[myOrder.tokenGet][feeAccount] = tokens[myOrder.tokenGet][\n            feeAccount\n        ].add(feeAmount);\n\n        emit Finish(\n            myOrder.id,\n            myOrder.user,\n            myOrder.tokenGet,\n            myOrder.amountGet,\n            myOrder.tokenGive,\n            myOrder.amountGive,\n            3,\n            block.timestamp\n        );\n    }\n}\n",
  "sourcePath": "/Users/coocld/work/web3/code/contracts/Exchange.sol",
  "compiler": {
    "name": "solc",
    "version": "0.8.21+commit.d9974bed.Emscripten.clang"
  },
  "schemaVersion": "3.4.16",
  "updatedAt": "2024-12-18T05:17:49.419Z",
  "networkType": "ethereum",
  "devdoc": {
    "kind": "dev",
    "methods": {},
    "version": 1
  },
  "userdoc": {
    "kind": "user",
    "methods": {},
    "version": 1
  }
}