{
  "contractName": "StudentStoage",
  "abi": [
    {
      "inputs": [
        {
          "internalType": "uint256",
          "name": "",
          "type": "uint256"
        }
      ],
      "name": "StudentList",
      "outputs": [
        {
          "internalType": "uint256",
          "name": "id",
          "type": "uint256"
        },
        {
          "internalType": "string",
          "name": "name",
          "type": "string"
        },
        {
          "internalType": "uint256",
          "name": "age",
          "type": "uint256"
        },
        {
          "internalType": "address",
          "name": "account",
          "type": "address"
        }
      ],
      "stateMutability": "view",
      "type": "function",
      "constant": true
    },
    {
      "inputs": [
        {
          "internalType": "uint256",
          "name": "_age",
          "type": "uint256"
        },
        {
          "internalType": "string",
          "name": "_username",
          "type": "string"
        }
      ],
      "name": "addList",
      "outputs": [
        {
          "internalType": "uint256",
          "name": "",
          "type": "uint256"
        }
      ],
      "stateMutability": "nonpayable",
      "type": "function"
    },
    {
      "inputs": [],
      "name": "getList",
      "outputs": [
        {
          "components": [
            {
              "internalType": "uint256",
              "name": "id",
              "type": "uint256"
            },
            {
              "internalType": "string",
              "name": "name",
              "type": "string"
            },
            {
              "internalType": "uint256",
              "name": "age",
              "type": "uint256"
            },
            {
              "internalType": "address",
              "name": "account",
              "type": "address"
            }
          ],
          "internalType": "struct StudentStoage.Student[]",
          "name": "",
          "type": "tuple[]"
        }
      ],
      "stateMutability": "view",
      "type": "function",
      "constant": true
    }
  ],
  "bytecode": "0x608060405234801561001057600080fd5b50610ca8806100206000396000f3fe608060405234801561001057600080fd5b506004361061005e576000357c010000000000000000000000000000000000000000000000000000000090048063942b765a1461006357806395bbc64e14610081578063d342ae21146100b4575b600080fd5b61006b6100e4565b604051610078919061063c565b60405180910390f35b61009b6004803603810190610096919061069e565b610244565b6040516100ab9493929190610733565b60405180910390f35b6100ce60048036038101906100c991906108b4565b61032c565b6040516100db9190610910565b60405180910390f35b6060600080805480602002602001604051908101604052809291908181526020016000905b828210156102375783829060005260206000209060040201604051806080016040529081600082015481526020016001820180546101469061095a565b80601f01602080910402602001604051908101604052809291908181526020018280546101729061095a565b80156101bf5780601f10610194576101008083540402835291602001916101bf565b820191906000526020600020905b8154815290600101906020018083116101a257829003601f168201915b50505050508152602001600282015481526020016003820160009054906101000a900473ffffffffffffffffffffffffffffffffffffffff1673ffffffffffffffffffffffffffffffffffffffff1673ffffffffffffffffffffffffffffffffffffffff168152505081526020019060010190610109565b5050505090508091505090565b6000818154811061025457600080fd5b906000526020600020906004020160009150905080600001549080600101805461027d9061095a565b80601f01602080910402602001604051908101604052809291908181526020018280546102a99061095a565b80156102f65780601f106102cb576101008083540402835291602001916102f6565b820191906000526020600020905b8154815290600101906020018083116102d957829003601f168201915b5050505050908060020154908060030160009054906101000a900473ffffffffffffffffffffffffffffffffffffffff16905084565b6000806000805490509050600060018261034691906109ba565b9050600060405180608001604052808381526020018681526020018781526020013373ffffffffffffffffffffffffffffffffffffffff1681525090806001815401808255809150506001900390600052602060002090600402016000909190919091506000820151816000015560208201518160010190816103c99190610ba0565b506040820151816002015560608201518160030160006101000a81548173ffffffffffffffffffffffffffffffffffffffff021916908373ffffffffffffffffffffffffffffffffffffffff16021790555050506000805490509250505092915050565b600081519050919050565b600082825260208201905092915050565b6000819050602082019050919050565b6000819050919050565b61046c81610459565b82525050565b600081519050919050565b600082825260208201905092915050565b60005b838110156104ac578082015181840152602081019050610491565b60008484015250505050565b6000601f19601f8301169050919050565b60006104d482610472565b6104de818561047d565b93506104ee81856020860161048e565b6104f7816104b8565b840191505092915050565b600073ffffffffffffffffffffffffffffffffffffffff82169050919050565b600061052d82610502565b9050919050565b61053d81610522565b82525050565b600060808301600083015161055b6000860182610463565b506020830151848203602086015261057382826104c9565b91505060408301516105886040860182610463565b50606083015161059b6060860182610534565b508091505092915050565b60006105b28383610543565b905092915050565b6000602082019050919050565b60006105d28261042d565b6105dc8185610438565b9350836020820285016105ee85610449565b8060005b8581101561062a578484038952815161060b85826105a6565b9450610616836105ba565b925060208a019950506001810190506105f2565b50829750879550505050505092915050565b6000602082019050818103600083015261065681846105c7565b905092915050565b6000604051905090565b600080fd5b600080fd5b61067b81610459565b811461068657600080fd5b50565b60008135905061069881610672565b92915050565b6000602082840312156106b4576106b3610668565b5b60006106c284828501610689565b91505092915050565b6106d481610459565b82525050565b600082825260208201905092915050565b60006106f682610472565b61070081856106da565b935061071081856020860161048e565b610719816104b8565b840191505092915050565b61072d81610522565b82525050565b600060808201905061074860008301876106cb565b818103602083015261075a81866106eb565b905061076960408301856106cb565b6107766060830184610724565b95945050505050565b600080fd5b600080fd5b7f4e487b7100000000000000000000000000000000000000000000000000000000600052604160045260246000fd5b6107c1826104b8565b810181811067ffffffffffffffff821117156107e0576107df610789565b5b80604052505050565b60006107f361065e565b90506107ff82826107b8565b919050565b600067ffffffffffffffff82111561081f5761081e610789565b5b610828826104b8565b9050602081019050919050565b82818337600083830152505050565b600061085761085284610804565b6107e9565b90508281526020810184848401111561087357610872610784565b5b61087e848285610835565b509392505050565b600082601f83011261089b5761089a61077f565b5b81356108ab848260208601610844565b91505092915050565b600080604083850312156108cb576108ca610668565b5b60006108d985828601610689565b925050602083013567ffffffffffffffff8111156108fa576108f961066d565b5b61090685828601610886565b9150509250929050565b600060208201905061092560008301846106cb565b92915050565b7f4e487b7100000000000000000000000000000000000000000000000000000000600052602260045260246000fd5b6000600282049050600182168061097257607f821691505b6020821081036109855761098461092b565b5b50919050565b7f4e487b7100000000000000000000000000000000000000000000000000000000600052601160045260246000fd5b60006109c582610459565b91506109d083610459565b92508282019050808211156109e8576109e761098b565b5b92915050565b60008190508160005260206000209050919050565b60006020601f8301049050919050565b60008160020a8302905092915050565b600060088302610a537fffffffffffffffffffffffffffffffffffffffffffffffffffffffffffffffff82610a13565b610a5d8683610a13565b95508019841693508086168417925050509392505050565b6000819050919050565b6000610a9a610a95610a9084610459565b610a75565b610459565b9050919050565b6000819050919050565b610ab483610a7f565b610ac8610ac082610aa1565b848454610a23565b825550505050565b600090565b610add610ad0565b610ae8818484610aab565b505050565b5b81811015610b0c57610b01600082610ad5565b600181019050610aee565b5050565b601f821115610b5157610b22816109ee565b610b2b84610a03565b81016020851015610b3a578190505b610b4e610b4685610a03565b830182610aed565b50505b505050565b60008160020a8304905092915050565b6000610b7760001984600802610b56565b1980831691505092915050565b6000610b908383610b66565b9150826002028217905092915050565b610ba982610472565b67ffffffffffffffff811115610bc257610bc1610789565b5b610bcc825461095a565b610bd7828285610b10565b600060209050601f831160018114610c0a5760008415610bf8578287015190505b610c028582610b84565b865550610c6a565b601f198416610c18866109ee565b60005b82811015610c4057848901518255600182019150602085019450602081019050610c1b565b86831015610c5d5784890151610c59601f891682610b66565b8355505b6001600288020188555050505b50505050505056fea26469706673582212203e8b3a131aebe6596dbd1dcf6ddf2ef4b893455d9482b0369593fdcc8e9d635764736f6c63430008150033",
  "immutableReferences": {},
  "source": "// SPDX-License-Identifier: MIT\npragma solidity ^0.8.21;\ncontract StudentStoage{\n  struct Student {\n    uint id;\n    string name;\n    uint age;\n    address account;\n  }\n  Student[] public StudentList;\n\n\n  function addList(uint _age, string memory _username) public returns(uint){\n    uint count = StudentList.length;\n    uint index = count + 1;\n    StudentList.push(Student(index, _username, _age, msg.sender));\n    return StudentList.length;\n  }\n\n  function getList() public view returns(Student[] memory){\n    Student[] memory list = StudentList;\n    return list;\n  }\n}",
  "sourcePath": "/Users/coocld/work/web3/code/contracts/StudentStorage.sol",
  "compiler": {
    "name": "solc",
    "version": "0.8.21+commit.d9974bed.Emscripten.clang"
  },
  "schemaVersion": "3.4.16",
  "updatedAt": "2024-12-18T05:17:48.615Z",
  "networkType": "ethereum",
  "devdoc": {
    "kind": "dev",
    "methods": {},
    "version": 1
  },
  "userdoc": {
    "kind": "user",
    "methods": {},
    "version": 1
  }
}